:0300000002024BAE
:0C024B00787FE4F6D8FD75811B0202925A
:10047C00060877726974653A060E20726561643AF3
:10000300E4F514F515F516F5171204167F8012049E
:100013008DE4F518F51974082519F8E6FF1204990B
:100023000519E51970020518C39406E518940040F4
:10003300E57FC012048DE4F518F519740E2519F83F
:10004300E6FF1204990519E51970020518C3940611
:10005300E518940040E520B03112043420B007AD18
:10006300157F021203D8C3E5199432E518940050A2
:100073001020B20D0519E519700205181204348019
:10008300E5E4F518F519F518F51920B13012043423
:1000930020B10A7F021203B07516008F17C3E5194A
:1000A3009432E5189400501020B10D0519E519702C
:1000B30002051812043480E5E4F518F51920B23B63
:1000C30012043420B2080515E51570020514C3E5C2
:1000D300199432E5189400501020B20D0519E51952
:1000E3007002051812043480E5E4F518F519B51506
:1000F3000AE514B40105E4F514F51520B32B120435
:100103003420B305E4F514F515C3E5199432E51865
:100113009400501020B30D0519E51970020518124B
:10012300043480E5E4F518F5197F8712048DAE14C5
:10013300AF157C037DE81202D7EF2430FF12049938
:10014300AE14AF157C037DE81202D77E007F64CF27
:10015300CDCFCECCCE1202D7EF2430FF120499AE0E
:1001630014AF157C037DE81202D77E007F64CFCDE8
:10017300CFCECCCE1202D77E007F0ACFCDCFCECC4E
:10018300CE1202D7EF2430FF120499AE14AF157CC0
:10019300037DE81202D77E007F64CFCDCFCECCCED5
:1001A3001202D77E007F0ACFCDCFCECCCE1202D79C
:1001B300ED2430FF1204997FC712048DAE16AF17DA
:1001C3007C037DE81202D7EF2430FF120499AE16A8
:1001D300AF177C037DE81202D77E007F64CFCDCFBB
:1001E300CECCCE1202D7EF2430FF120499AE16AF55
:1001F300177C037DE81202D77E007F64CFCDCFCE7C
:10020300CCCE1202D77E007F0ACFCDCFCECCCE127A
:1002130002D7EF2430FF120499AE16AF177C037D8B
:10022300E81202D77E007F64CFCDCFCECCCE1202B0
:10023300D77E007F0ACFCDCFCECCCE1202D7ED240E
:0802430030FF1204990200597A
:040434007F017E00C6
:10043800D3EF9400EE9400400F7D267C82DCFEDD35
:08044800FAEF1F70EB1E80E8C3
:010450002289
:1003D8008F1A8D1B1204517D017FA012032C7D0101
:0F03E800AF1A12032CE4FDAF1B12032C02046AA0
:0203B0008F1AA2
:1003B2001204517D017FA012032C7D01AF1A12039A
:1003C2002C1204517D017FA112032C1203F78F1B03
:0503D20012046AAF1BDC
:0103D7002203
:10045100D2A000D2A10000000000C2A00000000054
:0904610000C2A10000000000220D
:10046A00C2A000D2A10000000000D2A0000000003B
:02047A0000225E
:10032C00E4FEFBC2A100EFC4131313540124FF928B
:10033C00A0EF25E0FF00D2A100000000000EBE08D7
:10034C00E2C2A100D2A000D2A130A010BD010D0BC1
:10035C00EBD394C840F3C2A1007F0022C2A1007F5E
:01036C00018F
:01036D00226D
:1003F700E4FFFED2A000C2A10000D2A10000EE25BA
:0E040700E0FEA2A0E43342060FBF08EAAF06F3
:0104150022C4
:10036E00C2A58B807F017E00120397D2A77F057EE8
:10037E0000120397C2A7EBC454F0F5807F017E00F4
:09038E00120397D2A77F057E003F
:10039700D3EF9400EE9400400F7DC77C01DCFEDDB7
:0803A700FAEF1F70EB1E80E865
:0103AF00222B
:0C048D00AB07C2A7C2A612036EC2A722D2
:0C049900AB07C2A7D2A612036EC2A722B6
:100416007F3212048D7F2812048D7F0C12048D7F8B
:0E0426000612048D7F0112048D7F8002048D6A
:10025700020003E493A3F8E493A34003F68001F2BA
:1002670008DFF48029E493A3F85407240CC8C333A8
:10027700C4540F4420C8834004F456800146F6DF77
:10028700E4800B010204081020408090047CE47E87
:10029700019360BCA3FF543F30E509541FFEE4936C
:1002A700A360010ECF54C025E060A840B8E493A333
:1002B700FAE493A3F8E493A3C8C582C8CAC583CA5E
:1002C700F0A3C8C582C8CAC583CADFE9DEE780BE16
:01048C00006F
:1002D700BC000BBE0029EF8DF084FFADF022E4CC0B
:1002E700F875F008EF2FFFEE33FEEC33FCEE9DECD4
:1002F700984005FCEE9DFE0FD5F0E9E4CEFD22ED1A
:10030700F8F5F0EE8420D21CFEADF075F008EF2F63
:10031700FFED33FD4007985006D5F0F222C398FD54
:050327000FD5F0EA22F1
:00000001FF
